:0A0000000C9457000C9400000C94BF
:10000A0000000C9400000C9400000C9400000C9466
:10001A0000000C9400000C9400000C9400000C9456
:10002A0000000C9400000C9400000C9400000C9446
:10003A0000000C9400000C9400000C9400000C9436
:10004A0000000C9400000C9400003738392F343526
:10005A00362A3132332D63303D2B0E0D0B0750619A
:10006A007373776F72643A2000436F7272656374B8
:10007A00004675636B206F666620000080C0100022
:10008A007D02540004008D0264000B0060026800C7
:10009A0008006B0273000A0073027B0002009102DF
:1000AA0086000000F894EE27ECBBF1E0FBBFEBBF43
:1000BA00E5BF8DE0A2E0BB27ED938A95E9F780E0E2
:1000CA0098E0A0E6ED930197E9F7E8E8F0E085917A
:1000DA009591009761F0A591B59105901590BF0192
:1000EA00F00105900D920197E1F7FB01F0CFEFE5E2
:1000FA00EDBFE8E0EEBFC0E6D2E00C94840025979D
:10010A0010E030E020E0EFEFE7BBEFE0E4BBE5BB57
:10011A00A0E1FCD095D0552401E010E01430F0F5B0
:10012A00E12FF0E0E357FD4FE081E5BBA0E09C99A9
:10013A00A1E0E0E00E94D8010E2EA0E09D99A1E086
:10014A00E0E00E94D8010E2AA0E09E99A1E0E0E03A
:10015A000E94D8010E2AA0E09F99A1E0E0E00E9447
:10016A00D801E029C9F09C9904C0FBD0AE0FBF1F8B
:10017A000C919D9904C0F5D0EA0FFB1F01819E994D
:10018A0004C0EFD0EA0FFB1F02819F9904C0E9D097
:10019A00EA0FFB1F038102C01F5FC0CFE52DF0E00D
:1001AA00309761F5303051F481D0A0E6B2E09DD0AD
:1001BA00A1E0B0E00E94C90143D031E0013049F02A
:1001CA00E22FF0E0DE01EA0FFB1F0083AAE278D0FB
:1001DA002F5F243091F420E0A881A13349F4A9814A
:1001EA00A43331F4AA81A03319F4AB81A23309F004
:1001FA0002C0E1E001C0E2E05E2E1CC0E130A0E0F6
:10020A00FA0769F453D0A1E0B0E00E94C901ABE655
:10021A00B2E06BD0A8EEB3E00E94C90109C0E23097
:10022A00A0E0FA0739F442D0A3E7B2E05ED0C09A60
:10023A00552430E0A1EEB0E00E94C9016DCFFFCF96
:10024A00E4E0EBBBE0E0EBBBE4EFEBBBE0EFEBBBE6
:10025A000895AA93EBB3EF70AE2FE881E07FEA2B03
:10026A00EBBB8DE08A95F1F7DA9A8DE08A95F1F782
:10027A00DA988DE08A95F1F772C0AA93A881E9DF2E
:10028A00E881E295E883A881E4DF85E88A95F1F7B9
:10029A0066C0AA93E881F0E0EF56FD4FE081A9819C
:1002AA00AE0FEBDF4980788022960895A2E060D0F5
:1002BA00ACE0E3DFA1E05CD0E0E07E2E4E2E0895B4
:1002CA00AA93A881AA3011F0461448F0E0E0EA9314
:1002DA007394A72DDEDFA881AA3009F440C04394A5
:1002EA00D89AA881CADFD8983AC0BA93AA931A931F
:1002FA00A981BA81ED91A983BA831E2FE03019F042
:10030A00A12FDEDFF5CF188123960895AA93EAB3C9
:10031A00E06FEABBD29AD09AD19ADA98D898D9984B
:10032A006880E881E058E0939302E881E054E09322
:10033A009402A4E1B0E00E94C9011FD01ED01DD0D2
:10034A00A0E287DF88EC90E00197F1F7A8E295DF59
:10035A00A4E093DFA5E891DFA6E08FDFA7DF21966F
:10036A000895E12FADE7B2E0F0E00E94D3010895CD
:10037A0084DFA3E0B0E00C94C901A0E36ADF88EC53
:10038A0090E00197F1F70895109639F080ED97E023
:10039A000197F1F7A8951197C9F70895EE0FFF1F76
:1003AA00EE0FFF1F0895EA17E1E009F0EE2708951E
:00000001FF
