:060000000C9422010C9497
:1000060000000C9400000C9400000C9400000C946A
:1000160000000C9400000C9400000C9400000C945A
:1000260000000C9400000C9400000C9400000C944A
:1000360000000C9400000C9400000C9400000C943A
:1000460000000C9400000C9400000C9400003F0685
:100056005B4F666D7D077F4F400052656C61792D61
:1000660031203C3D0052656C61792D32200052658D
:100076006C61792D31200052656C61792D32203CFE
:100086003D0052656C61792D33203C3D0052656C14
:1000960061792D34200052656C61792D3320005230
:1000A600656C61792D34203C3D0052656C61792D7B
:1000B600312069733A004F4E004F46460052656C38
:1000C60061792D322069733A0052656C61792D335E
:1000D6002069733A0052656C61792D342069733A50
:1000E6000020523120205232202052332020523418
:1000F6002020004B616D7961622054616A6D6972DE
:10010600690041726520796F752052656164793F97
:100116000069662079206A7573742070726573733E
:10012600206D656E750080C00B00A90354000B009E
:100136006002600009006B026B0009007402740023
:100146000B007D027D000B008802880009009302E7
:10015600930009009C029C000B00A502A5000C0060
:10016600B002B0000300BC02BC000400BF02BF0026
:100176000C00C302C3000300CF02BC000400D2027D
:10018600BF000C00D602CF000300E202BC00040050
:10019600E502BF000C00E902DB000300F502BC002B
:1001A6000400F802BF000C00FC02B00003000803C4
:1001B600BC0004000B03BF000C000F03C3000300C8
:1001C6001B03BC0004001E03BF000C002203CF006B
:1001D60003002E03BC0004003103BF000C003503EE
:1001E600DB0003004103BC0004004403BF0012000F
:1001F6004803E70003005A03BC0004005D03BF0088
:1002060003006103BC0004006403BF00030068032D
:10021600BC0004006B03BF0003006F03BC000400B6
:100226007203BF000F007603F9000F008503080173
:100236001500940317010200B4032C010000F89482
:10024600EE27ECBBF1E0FBBFEBBFE5BF8DE0A2E024
:10025600BB27ED938A95E9F780E098E0A0E6ED9359
:100266000197E9F7EEE2F1E085919591009761F04B
:10027600A591B59105901590BF01F00105900D92DD
:100286000197E1F7FB01F0CFEFE5EDBFE8E0EEBF48
:10029600C0E6D2E00C944F0100E0E8EFE7BBE7E0F0
:1002A600E8BBEFE0E4BBE0E0E5BBEFEFE1BBE091EC
:1002B600B303E2BB3DD111E0B09942C0113039F42D
:1002C6000F5F053011F4E1E001C0E02F0E2FE12FA2
:1002D600F0E0E230A0E0FA0711F411E004C0E130EA
:1002E600A0E0FA0769F5E091B303E2BBB7D139F4B0
:1002F6005AD1A0E6B2E0B8D1ABE6B2E020C0E23017
:10030600A0E0FA0739F44FD1A4E7B2E0ADD1ADE7EA
:10031600B2E015C0E330A0E0FA0739F444D1A8E80A
:10032600B2E0A2D1A3E9B2E00AC0E430A0E0FA0745
:1003360039F439D1ACE9B2E097D1A5EAB2E052D1AD
:10034600B199BAC0E12FF0E0E130A0E0FA0709F078
:1003560051C084D179F427D1A0EBB2E043D1989B68
:1003660003C0ACEBB2E03ED1989903C0AFEBB2E06C
:1003760039D138C0E230A0E0FA0779F414D1A3EC01
:10038600B2E030D1999B03C0AFECB2E02BD1999982
:1003960003C0A2EDB2E026D125C0E330A0E0FA0703
:1003A60079F401D1A6EDB2E01DD19A9B03C0A2EE6D
:1003B600B2E018D19A9903C0A5EEB2E013D112C0EB
:1003C600E430A0E0FA07A1F4EED0A9EEB2E00AD13B
:1003D6009B9B03C0A5EFB2E005D19B9903C0A8EF94
:1003E600B2E000D1E02FF0E0E755FC4FE081E2BB40
:1003F60012E062C0E230A0E0FA0709F05DC02ED13B
:10040600A1F4A89B02C0A89801C0A89ACCD0ACEFD2
:10041600B2E0E8D0989B03C0A8E0B3E0E3D0989997
:1004260003C0ABE0B3E0DED047C0E230A0E0FA079D
:10043600A1F4A99B02C0A99801C0A99AB4D0AFE0C3
:10044600B3E0D0D0999B03C0ABE1B3E0CBD0999990
:1004560003C0AEE1B3E0C6D02FC0E330A0E0FA0798
:10046600A1F4AA9B02C0AA9801C0AA9A9CD0A2E2B3
:10047600B3E0B8D09A9B03C0AEE2B3E0B3D09A998A
:1004860003C0A1E3B3E0AED017C0E430A0E0FA07A2
:1004960099F4AB9B02C0AB9801C0AB9A84D0A5E39C
:1004A600B3E0A0D09B9B03C0A1E4B3E09BD09B9993
:1004B60003C0A4E4B3E096D0B29934C074D0A8E4E3
:1004C600B3E090D0E1E0D5D0989B03C0AAE5B3E0B5
:1004D60089D0989903C0ADE5B3E084D0E5E0C9D0F2
:1004E600999B03C0A1E6B3E07DD0999903C0A4E629
:1004F600B3E078D0E9E0BDD09A9B03C0A8E6B3E0AC
:1005060071D09A9903C0ABE6B3E06CD0EDE0B1D000
:100516009B9B03C0AFE6B3E065D09B9903C0A2E7FF
:10052600B3E060D0A1EEB0E00E945103C5CEFFCF8C
:10053600A0E169D0E1E09DD0A6E7B3E09DD0A5E8B3
:10054600B3E09AD0A4E9B3E04DD00895AA93EBB3F3
:10055600EF70AE2FE881E07FEA2BEBBB8DE08A954A
:10056600F1F7DA9A8DE08A95F1F7DA988DE08A95B7
:10057600F1F772C0AA93A881E9DFE881E295E883E2
:10058600A881E4DF85E88A95F1F766C0AA93E88139
:10059600F0E0EC54FC4FE081A981AE0FEBDF59800F
:1005A600488022960895A2E06DD0ACE0E3DFA1E09A
:1005B60069D0E0E04E2E5E2E0895AA93A881AA3057
:1005C60011F0571448F0E0E0EA934394A42DDEDFDF
:1005D600A881AA3009F440C05394D89AA881CADFEA
:1005E600D8983AC0BA93AA931A93A981BA81ED9181
:1005F600A983BA831E2FE03019F0A12FDEDFF5CFD5
:10060600188123960895AA93EAB3E06FEABBD29ABB
:10061600D09AD19ADA98D898D9987880E881E05813
:10062600E093B603E881E054E093B703A4E1B0E0B9
:100636000E9451032CD02BD02AD0A0E287DF88EC71
:1006460090E00197F1F7A8E295DFA4E093DFA5E833
:1006560091DFA6E08FDFA7DF21960895E02FF0E077
:10066600E130A0E0FA070895BDDFE0E0EA93A1E0FB
:100676008DCFEA93A1E08ACFB5DFA8EEB3E00E9462
:10068600510391CF77DFA3E0B0E00C945103A0E3D0
:100696005DDF88EC90E00197F1F70895109639F048
:1006A60080ED97E00197F1F7A8951197C9F708959E
:00000001FF
